:100000000C9434000C9449000C9449000C94490061
:100010000C9449000C9449000C9449000C9449003C
:100020000C9449000C9449000C9449000C9449002C
:100030000C9449000C9449000C9449000C9449001C
:100040000C9449000C9449000C9449000C9449000C
:100050000C9449000C9449000C9449000C944900FC
:100060000C9449000C94490011241FBECFEFD8E036
:10007000DEBFCDBF11E0A0E0B1E0E6ECF1E002C0F0
:1000800005900D92A830B107D9F70E944B000C944F
:10009000E1000C940000CF93DF9380E091E00E9498
:1000A0008F00C0E9D1E080E091E00E946A0088EB17
:1000B0009BE0FE013197F1F70197D9F780E091E0DD
:1000C0000E947D0088EB9BE0FE013197F1F70197DC
:1000D000D9F7E9CFDC011596EC911597F0E0228174
:1000E00081E090E016960C9002C0880F991F0A9448
:1000F000E2F78095282322830895DC011596EC9180
:100100001597F0E0228181E090E016960C9002C0F5
:10011000880F991F0A94E2F7282B22830895DC01A7
:100120009C91983028F489E215968C93159710C00D
:100130009E3030F483E215968C931597985008C042
:10014000943108F03DC086E215968C9315979E5029
:1001500016969C93169711962D913C911297159691
:10016000EC91159716964C9116972130310551F464
:10017000F0E0818102C0220F331F4A95E2F7822B03
:1001800081830895F0E0218181E090E002C0880F32
:10019000991F4A95E2F78095282321831596EC91C3
:1001A0001597F0E0228113968C91139790E01696A4
:1001B0000C9002C0880F991F0A94E2F7282B228323
:0601C0000895F894FFCF42
:0801C60002010000000000002E
:00000001FF
